{
  "contractName": "MentalHealth",
  "abi": [
    {
      "constant": false,
      "inputs": [
        {
          "internalType": "string",
          "name": "_healthID",
          "type": "string"
        },
        {
          "internalType": "string",
          "name": "_testID",
          "type": "string"
        },
        {
          "internalType": "address",
          "name": "_cryptoWalletAddress",
          "type": "address"
        }
      ],
      "name": "initializePatientMHTest",
      "outputs": [],
      "payable": false,
      "stateMutability": "nonpayable",
      "type": "function"
    },
    {
      "constant": false,
      "inputs": [
        {
          "internalType": "string",
          "name": "_testID",
          "type": "string"
        },
        {
          "internalType": "string",
          "name": "_questionOne",
          "type": "string"
        },
        {
          "internalType": "string",
          "name": "_questionTwo",
          "type": "string"
        },
        {
          "internalType": "string",
          "name": "_questionThree",
          "type": "string"
        },
        {
          "internalType": "string",
          "name": "_questionFour",
          "type": "string"
        },
        {
          "internalType": "string",
          "name": "_questionFive",
          "type": "string"
        },
        {
          "internalType": "string",
          "name": "_questionSix",
          "type": "string"
        },
        {
          "internalType": "string",
          "name": "_questionSeven",
          "type": "string"
        },
        {
          "internalType": "string",
          "name": "_score",
          "type": "string"
        }
      ],
      "name": "initializeChildhoodDetails",
      "outputs": [],
      "payable": false,
      "stateMutability": "nonpayable",
      "type": "function"
    },
    {
      "constant": false,
      "inputs": [
        {
          "internalType": "string",
          "name": "_testID",
          "type": "string"
        },
        {
          "internalType": "string",
          "name": "_questionOne",
          "type": "string"
        },
        {
          "internalType": "string",
          "name": "_questionTwo",
          "type": "string"
        },
        {
          "internalType": "string",
          "name": "_questionThree",
          "type": "string"
        },
        {
          "internalType": "string",
          "name": "_questionFour",
          "type": "string"
        },
        {
          "internalType": "string",
          "name": "_questionFive",
          "type": "string"
        },
        {
          "internalType": "string",
          "name": "_questionSix",
          "type": "string"
        },
        {
          "internalType": "string",
          "name": "_questionSeven",
          "type": "string"
        },
        {
          "internalType": "string",
          "name": "_questionEight",
          "type": "string"
        },
        {
          "internalType": "string",
          "name": "_questionNine",
          "type": "string"
        },
        {
          "internalType": "string",
          "name": "_score",
          "type": "string"
        }
      ],
      "name": "initializePHQ9Details",
      "outputs": [],
      "payable": false,
      "stateMutability": "nonpayable",
      "type": "function"
    },
    {
      "constant": false,
      "inputs": [
        {
          "internalType": "string",
          "name": "_testID",
          "type": "string"
        },
        {
          "internalType": "string",
          "name": "_text",
          "type": "string"
        },
        {
          "internalType": "string",
          "name": "_hash",
          "type": "string"
        },
        {
          "internalType": "string",
          "name": "_score",
          "type": "string"
        }
      ],
      "name": "initializeSentimentDetails",
      "outputs": [],
      "payable": false,
      "stateMutability": "nonpayable",
      "type": "function"
    },
    {
      "constant": true,
      "inputs": [
        {
          "internalType": "string",
          "name": "_healthID",
          "type": "string"
        }
      ],
      "name": "getAllTestIDs",
      "outputs": [
        {
          "internalType": "string[]",
          "name": "_testIDs",
          "type": "string[]"
        }
      ],
      "payable": false,
      "stateMutability": "view",
      "type": "function"
    },
    {
      "constant": true,
      "inputs": [
        {
          "internalType": "string",
          "name": "_testID",
          "type": "string"
        }
      ],
      "name": "getChildhoodDetails",
      "outputs": [
        {
          "internalType": "string",
          "name": "_questionOne",
          "type": "string"
        },
        {
          "internalType": "string",
          "name": "_questionTwo",
          "type": "string"
        },
        {
          "internalType": "string",
          "name": "_questionThree",
          "type": "string"
        },
        {
          "internalType": "string",
          "name": "_questionFour",
          "type": "string"
        },
        {
          "internalType": "string",
          "name": "_questionFive",
          "type": "string"
        },
        {
          "internalType": "string",
          "name": "_questionSix",
          "type": "string"
        },
        {
          "internalType": "string",
          "name": "_questionSeven",
          "type": "string"
        },
        {
          "internalType": "string",
          "name": "_score",
          "type": "string"
        }
      ],
      "payable": false,
      "stateMutability": "view",
      "type": "function"
    },
    {
      "constant": true,
      "inputs": [
        {
          "internalType": "string",
          "name": "_testID",
          "type": "string"
        }
      ],
      "name": "getPHQ9Details",
      "outputs": [
        {
          "internalType": "string",
          "name": "_questionOne",
          "type": "string"
        },
        {
          "internalType": "string",
          "name": "_questionTwo",
          "type": "string"
        },
        {
          "internalType": "string",
          "name": "_questionThree",
          "type": "string"
        },
        {
          "internalType": "string",
          "name": "_questionFour",
          "type": "string"
        },
        {
          "internalType": "string",
          "name": "_questionFive",
          "type": "string"
        },
        {
          "internalType": "string",
          "name": "_questionSix",
          "type": "string"
        },
        {
          "internalType": "string",
          "name": "_questionSeven",
          "type": "string"
        },
        {
          "internalType": "string",
          "name": "_questionEight",
          "type": "string"
        },
        {
          "internalType": "string",
          "name": "_questionNine",
          "type": "string"
        },
        {
          "internalType": "string",
          "name": "_score",
          "type": "string"
        }
      ],
      "payable": false,
      "stateMutability": "view",
      "type": "function"
    },
    {
      "constant": true,
      "inputs": [
        {
          "internalType": "string",
          "name": "_testID",
          "type": "string"
        }
      ],
      "name": "getSentimentDetails",
      "outputs": [
        {
          "internalType": "string",
          "name": "_textSentiment",
          "type": "string"
        },
        {
          "internalType": "string",
          "name": "_audioHash",
          "type": "string"
        },
        {
          "internalType": "string",
          "name": "_score",
          "type": "string"
        }
      ],
      "payable": false,
      "stateMutability": "view",
      "type": "function"
    },
    {
      "constant": true,
      "inputs": [
        {
          "internalType": "string",
          "name": "_testID",
          "type": "string"
        }
      ],
      "name": "getAllScores",
      "outputs": [
        {
          "internalType": "string",
          "name": "_historyScore",
          "type": "string"
        },
        {
          "internalType": "string",
          "name": "_phq9Score",
          "type": "string"
        },
        {
          "internalType": "string",
          "name": "_sentimentalScore",
          "type": "string"
        }
      ],
      "payable": false,
      "stateMutability": "view",
      "type": "function"
    },
    {
      "constant": true,
      "inputs": [
        {
          "internalType": "string",
          "name": "_testID",
          "type": "string"
        }
      ],
      "name": "getCompleteTestDetails",
      "outputs": [
        {
          "internalType": "address",
          "name": "_cryptoWalletAddress",
          "type": "address"
        },
        {
          "internalType": "string",
          "name": "_healthID",
          "type": "string"
        },
        {
          "internalType": "string",
          "name": "_childhoodScore",
          "type": "string"
        },
        {
          "internalType": "string",
          "name": "_phq9Score",
          "type": "string"
        },
        {
          "internalType": "string",
          "name": "_sentimentalScore",
          "type": "string"
        }
      ],
      "payable": false,
      "stateMutability": "view",
      "type": "function"
    }
  ],
  "bytecode": "0x608060405234801561001057600080fd5b50613dcf806100206000396000f3fe608060405234801561001057600080fd5b506004361061009e5760003560e01c80638bc73583116100665780638bc7358314610174578063b8b9369e14610190578063d34a2e46146101ac578063f2f1ef28146101e0578063fcc29b8e146102195761009e565b80631f15ea94146100a35780632f5cb220146100bf5780636ccd4b2e146100ef578063713306711461010b578063890d11641461013d575b600080fd5b6100bd60048036036100b8919081019061331c565b61024b565b005b6100d960048036036100d491908101906132db565b6108c6565b6040516100e691906139f5565b60405180910390f35b6101096004803603610104919081019061339b565b6109cd565b005b610125600480360361012091908101906132db565b610a75565b60405161013493929190613a17565b60405180910390f35b610157600480360361015291908101906132db565b610cbc565b60405161016b989796959493929190613a63565b60405180910390f35b61018e6004803603610189919081019061345e565b61126b565b005b6101aa60048036036101a591908101906135fc565b6113c8565b005b6101c660048036036101c191908101906132db565b61156f565b6040516101d7959493929190613986565b60405180910390f35b6101fa60048036036101f591908101906132db565b6125e4565b6040516102109a99989796959493929190613b19565b60405180910390f35b610233600480360361022e91908101906132db565b612cf2565b60405161024293929190613a17565b60405180910390f35b600060018360405161025d919061396f565b9081526020016040518091039020600001600201805460018160011615610100020316600290049050146102c6576040517f08c379a00000000000000000000000000000000000000000000000000000000081526004016102bd90613bfb565b60405180910390fd5b6000836040516102d6919061396f565b908152602001604051809103902082908060018154018082558091505090600182039060005260206000200160009091929091909150908051906020019061031f929190612f44565b50506040518060a0016040528060405180606001604052808473ffffffffffffffffffffffffffffffffffffffff1681526020018681526020018581525081526020016040518061010001604052806040518060200160405280600081525081526020016040518060200160405280600081525081526020016040518060200160405280600081525081526020016040518060200160405280600081525081526020016040518060200160405280600081525081526020016040518060200160405280600081525081526020016040518060200160405280600081525081526020016040518060200160405280600081525081525081526020016040518061014001604052806040518060200160405280600081525081526020016040518060200160405280600081525081526020016040518060200160405280600081525081526020016040518060200160405280600081525081526020016040518060200160405280600081525081526020016040518060200160405280600081525081526020016040518060200160405280600081525081526020016040518060200160405280600081525081526020016040518060200160405280600081525081526020016040518060200160405280600081525081525081526020016040518060600160405280604051806020016040528060008152508152602001604051806020016040528060008152508152602001604051806020016040528060008152508152508152602001604051806020016040528060405180602001604052806000815250815250815250600183604051610578919061396f565b908152602001604051809103902060008201518160000160008201518160000160006101000a81548173ffffffffffffffffffffffffffffffffffffffff021916908373ffffffffffffffffffffffffffffffffffffffff16021790555060208201518160010190805190602001906105f2929190612fc4565b50604082015181600201908051906020019061060f929190612fc4565b5050506020820151816003016000820151816000019080519060200190610637929190612fc4565b506020820151816001019080519060200190610654929190612fc4565b506040820151816002019080519060200190610671929190612fc4565b50606082015181600301908051906020019061068e929190612fc4565b5060808201518160040190805190602001906106ab929190612fc4565b5060a08201518160050190805190602001906106c8929190612fc4565b5060c08201518160060190805190602001906106e5929190612fc4565b5060e0820151816007019080519060200190610702929190612fc4565b505050604082015181600b01600082015181600001908051906020019061072a929190612fc4565b506020820151816001019080519060200190610747929190612fc4565b506040820151816002019080519060200190610764929190612fc4565b506060820151816003019080519060200190610781929190612fc4565b50608082015181600401908051906020019061079e929190612fc4565b5060a08201518160050190805190602001906107bb929190612fc4565b5060c08201518160060190805190602001906107d8929190612fc4565b5060e08201518160070190805190602001906107f5929190612fc4565b50610100820151816008019080519060200190610813929190612fc4565b50610120820151816009019080519060200190610831929190612fc4565b5050506060820151816015016000820151816000019080519060200190610859929190612fc4565b506020820151816001019080519060200190610876929190612fc4565b506040820151816002019080519060200190610893929190612fc4565b50505060808201518160180160008201518160000190805190602001906108bb929190612fc4565b505050905050505050565b60606000826040516108d8919061396f565b9081526020016040518091039020805480602002602001604051908101604052809291908181526020016000905b828210156109c2578382906000526020600020018054600181600116156101000203166002900480601f0160208091040260200160405190810160405280929190818152602001828054600181600116156101000203166002900480156109ae5780601f10610983576101008083540402835291602001916109ae565b820191906000526020600020905b81548152906001019060200180831161099157829003601f168201915b505050505081526020019060010190610906565b505050509050919050565b6109d5613044565b604051806060016040528085815260200184815260200183815250905080600186604051610a03919061396f565b90815260200160405180910390206015016000820151816000019080519060200190610a30929190612fc4565b506020820151816001019080519060200190610a4d929190612fc4565b506040820151816002019080519060200190610a6a929190612fc4565b509050505050505050565b6060806060610a82613044565b600185604051610a92919061396f565b9081526020016040518091039020601501604051806060016040529081600082018054600181600116156101000203166002900480601f016020809104026020016040519081016040528092919081815260200182805460018160011615610100020316600290048015610b475780601f10610b1c57610100808354040283529160200191610b47565b820191906000526020600020905b815481529060010190602001808311610b2a57829003601f168201915b50505050508152602001600182018054600181600116156101000203166002900480601f016020809104026020016040519081016040528092919081815260200182805460018160011615610100020316600290048015610be95780601f10610bbe57610100808354040283529160200191610be9565b820191906000526020600020905b815481529060010190602001808311610bcc57829003601f168201915b50505050508152602001600282018054600181600116156101000203166002900480601f016020809104026020016040519081016040528092919081815260200182805460018160011615610100020316600290048015610c8b5780601f10610c6057610100808354040283529160200191610c8b565b820191906000526020600020905b815481529060010190602001808311610c6e57829003601f168201915b5050505050815250509050806000015181602001518260400151829250819150809050935093509350509193909250565b606080606080606080606080610cd0613065565b60018a604051610ce0919061396f565b908152602001604051809103902060030160405180610100016040529081600082018054600181600116156101000203166002900480601f016020809104026020016040519081016040528092919081815260200182805460018160011615610100020316600290048015610d965780601f10610d6b57610100808354040283529160200191610d96565b820191906000526020600020905b815481529060010190602001808311610d7957829003601f168201915b50505050508152602001600182018054600181600116156101000203166002900480601f016020809104026020016040519081016040528092919081815260200182805460018160011615610100020316600290048015610e385780601f10610e0d57610100808354040283529160200191610e38565b820191906000526020600020905b815481529060010190602001808311610e1b57829003601f168201915b50505050508152602001600282018054600181600116156101000203166002900480601f016020809104026020016040519081016040528092919081815260200182805460018160011615610100020316600290048015610eda5780601f10610eaf57610100808354040283529160200191610eda565b820191906000526020600020905b815481529060010190602001808311610ebd57829003601f168201915b50505050508152602001600382018054600181600116156101000203166002900480601f016020809104026020016040519081016040528092919081815260200182805460018160011615610100020316600290048015610f7c5780601f10610f5157610100808354040283529160200191610f7c565b820191906000526020600020905b815481529060010190602001808311610f5f57829003601f168201915b50505050508152602001600482018054600181600116156101000203166002900480601f01602080910402602001604051908101604052809291908181526020018280546001816001161561010002031660029004801561101e5780601f10610ff35761010080835404028352916020019161101e565b820191906000526020600020905b81548152906001019060200180831161100157829003601f168201915b50505050508152602001600582018054600181600116156101000203166002900480601f0160208091040260200160405190810160405280929190818152602001828054600181600116156101000203166002900480156110c05780601f10611095576101008083540402835291602001916110c0565b820191906000526020600020905b8154815290600101906020018083116110a357829003601f168201915b50505050508152602001600682018054600181600116156101000203166002900480601f0160208091040260200160405190810160405280929190818152602001828054600181600116156101000203166002900480156111625780601f1061113757610100808354040283529160200191611162565b820191906000526020600020905b81548152906001019060200180831161114557829003601f168201915b50505050508152602001600782018054600181600116156101000203166002900480601f0160208091040260200160405190810160405280929190818152602001828054600181600116156101000203166002900480156112045780601f106111d957610100808354040283529160200191611204565b820191906000526020600020905b8154815290600101906020018083116111e757829003601f168201915b5050505050815250509050806000015181602001518260400151836060015184608001518560a001518660c001518760e001518797508696508595508494508393508292508191508090509850985098509850985098509850985050919395975091939597565b611273613065565b6040518061010001604052808a81526020018981526020018881526020018781526020018681526020018581526020018481526020018381525090508060018b6040516112c0919061396f565b908152602001604051809103902060030160008201518160000190805190602001906112ed929190612fc4565b50602082015181600101908051906020019061130a929190612fc4565b506040820151816002019080519060200190611327929190612fc4565b506060820151816003019080519060200190611344929190612fc4565b506080820151816004019080519060200190611361929190612fc4565b5060a082015181600501908051906020019061137e929190612fc4565b5060c082015181600601908051906020019061139b929190612fc4565b5060e08201518160070190805190602001906113b8929190612fc4565b5090505050505050505050505050565b6113d06130aa565b6040518061014001604052808c81526020018b81526020018a81526020018981526020018881526020018781526020018681526020018581526020018481526020018381525090508060018d604051611429919061396f565b9081526020016040518091039020600b016000820151816000019080519060200190611456929190612fc4565b506020820151816001019080519060200190611473929190612fc4565b506040820151816002019080519060200190611490929190612fc4565b5060608201518160030190805190602001906114ad929190612fc4565b5060808201518160040190805190602001906114ca929190612fc4565b5060a08201518160050190805190602001906114e7929190612fc4565b5060c0820151816006019080519060200190611504929190612fc4565b5060e0820151816007019080519060200190611521929190612fc4565b5061010082015181600801908051906020019061153f929190612fc4565b5061012082015181600901908051906020019061155d929190612fc4565b50905050505050505050505050505050565b600060608060608061157f6130fd565b60018760405161158f919061396f565b90815260200160405180910390206040518060a0016040529081600082016040518060600160405290816000820160009054906101000a900473ffffffffffffffffffffffffffffffffffffffff1673ffffffffffffffffffffffffffffffffffffffff1673ffffffffffffffffffffffffffffffffffffffff168152602001600182018054600181600116156101000203166002900480601f0160208091040260200160405190810160405280929190818152602001828054600181600116156101000203166002900480156116a75780601f1061167c576101008083540402835291602001916116a7565b820191906000526020600020905b81548152906001019060200180831161168a57829003601f168201915b50505050508152602001600282018054600181600116156101000203166002900480601f0160208091040260200160405190810160405280929190818152602001828054600181600116156101000203166002900480156117495780601f1061171e57610100808354040283529160200191611749565b820191906000526020600020905b81548152906001019060200180831161172c57829003601f168201915b50505050508152505081526020016003820160405180610100016040529081600082018054600181600116156101000203166002900480601f0160208091040260200160405190810160405280929190818152602001828054600181600116156101000203166002900480156118005780601f106117d557610100808354040283529160200191611800565b820191906000526020600020905b8154815290600101906020018083116117e357829003601f168201915b50505050508152602001600182018054600181600116156101000203166002900480601f0160208091040260200160405190810160405280929190818152602001828054600181600116156101000203166002900480156118a25780601f10611877576101008083540402835291602001916118a2565b820191906000526020600020905b81548152906001019060200180831161188557829003601f168201915b50505050508152602001600282018054600181600116156101000203166002900480601f0160208091040260200160405190810160405280929190818152602001828054600181600116156101000203166002900480156119445780601f1061191957610100808354040283529160200191611944565b820191906000526020600020905b81548152906001019060200180831161192757829003601f168201915b50505050508152602001600382018054600181600116156101000203166002900480601f0160208091040260200160405190810160405280929190818152602001828054600181600116156101000203166002900480156119e65780601f106119bb576101008083540402835291602001916119e6565b820191906000526020600020905b8154815290600101906020018083116119c957829003601f168201915b50505050508152602001600482018054600181600116156101000203166002900480601f016020809104026020016040519081016040528092919081815260200182805460018160011615610100020316600290048015611a885780601f10611a5d57610100808354040283529160200191611a88565b820191906000526020600020905b815481529060010190602001808311611a6b57829003601f168201915b50505050508152602001600582018054600181600116156101000203166002900480601f016020809104026020016040519081016040528092919081815260200182805460018160011615610100020316600290048015611b2a5780601f10611aff57610100808354040283529160200191611b2a565b820191906000526020600020905b815481529060010190602001808311611b0d57829003601f168201915b50505050508152602001600682018054600181600116156101000203166002900480601f016020809104026020016040519081016040528092919081815260200182805460018160011615610100020316600290048015611bcc5780601f10611ba157610100808354040283529160200191611bcc565b820191906000526020600020905b815481529060010190602001808311611baf57829003601f168201915b50505050508152602001600782018054600181600116156101000203166002900480601f016020809104026020016040519081016040528092919081815260200182805460018160011615610100020316600290048015611c6e5780601f10611c4357610100808354040283529160200191611c6e565b820191906000526020600020905b815481529060010190602001808311611c5157829003601f168201915b5050505050815250508152602001600b820160405180610140016040529081600082018054600181600116156101000203166002900480601f016020809104026020016040519081016040528092919081815260200182805460018160011615610100020316600290048015611d255780601f10611cfa57610100808354040283529160200191611d25565b820191906000526020600020905b815481529060010190602001808311611d0857829003601f168201915b50505050508152602001600182018054600181600116156101000203166002900480601f016020809104026020016040519081016040528092919081815260200182805460018160011615610100020316600290048015611dc75780601f10611d9c57610100808354040283529160200191611dc7565b820191906000526020600020905b815481529060010190602001808311611daa57829003601f168201915b50505050508152602001600282018054600181600116156101000203166002900480601f016020809104026020016040519081016040528092919081815260200182805460018160011615610100020316600290048015611e695780601f10611e3e57610100808354040283529160200191611e69565b820191906000526020600020905b815481529060010190602001808311611e4c57829003601f168201915b50505050508152602001600382018054600181600116156101000203166002900480601f016020809104026020016040519081016040528092919081815260200182805460018160011615610100020316600290048015611f0b5780601f10611ee057610100808354040283529160200191611f0b565b820191906000526020600020905b815481529060010190602001808311611eee57829003601f168201915b50505050508152602001600482018054600181600116156101000203166002900480601f016020809104026020016040519081016040528092919081815260200182805460018160011615610100020316600290048015611fad5780601f10611f8257610100808354040283529160200191611fad565b820191906000526020600020905b815481529060010190602001808311611f9057829003601f168201915b50505050508152602001600582018054600181600116156101000203166002900480601f01602080910402602001604051908101604052809291908181526020018280546001816001161561010002031660029004801561204f5780601f106120245761010080835404028352916020019161204f565b820191906000526020600020905b81548152906001019060200180831161203257829003601f168201915b50505050508152602001600682018054600181600116156101000203166002900480601f0160208091040260200160405190810160405280929190818152602001828054600181600116156101000203166002900480156120f15780601f106120c6576101008083540402835291602001916120f1565b820191906000526020600020905b8154815290600101906020018083116120d457829003601f168201915b50505050508152602001600782018054600181600116156101000203166002900480601f0160208091040260200160405190810160405280929190818152602001828054600181600116156101000203166002900480156121935780601f1061216857610100808354040283529160200191612193565b820191906000526020600020905b81548152906001019060200180831161217657829003601f168201915b50505050508152602001600882018054600181600116156101000203166002900480601f0160208091040260200160405190810160405280929190818152602001828054600181600116156101000203166002900480156122355780601f1061220a57610100808354040283529160200191612235565b820191906000526020600020905b81548152906001019060200180831161221857829003601f168201915b50505050508152602001600982018054600181600116156101000203166002900480601f0160208091040260200160405190810160405280929190818152602001828054600181600116156101000203166002900480156122d75780601f106122ac576101008083540402835291602001916122d7565b820191906000526020600020905b8154815290600101906020018083116122ba57829003601f168201915b505050505081525050815260200160158201604051806060016040529081600082018054600181600116156101000203166002900480601f01602080910402602001604051908101604052809291908181526020018280546001816001161561010002031660029004801561238d5780601f106123625761010080835404028352916020019161238d565b820191906000526020600020905b81548152906001019060200180831161237057829003601f168201915b50505050508152602001600182018054600181600116156101000203166002900480601f01602080910402602001604051908101604052809291908181526020018280546001816001161561010002031660029004801561242f5780601f106124045761010080835404028352916020019161242f565b820191906000526020600020905b81548152906001019060200180831161241257829003601f168201915b50505050508152602001600282018054600181600116156101000203166002900480601f0160208091040260200160405190810160405280929190818152602001828054600181600116156101000203166002900480156124d15780601f106124a6576101008083540402835291602001916124d1565b820191906000526020600020905b8154815290600101906020018083116124b457829003601f168201915b505050505081525050815260200160188201604051806020016040529081600082018054600181600116156101000203166002900480601f0160208091040260200160405190810160405280929190818152602001828054600181600116156101000203166002900480156125875780601f1061255c57610100808354040283529160200191612587565b820191906000526020600020905b81548152906001019060200180831161256a57829003601f168201915b505050505081525050815250509050806000015160000151816000015160200151826020015160e0015183604001516101200151846060015160400151839350829250819150809050955095509550955095505091939590929450565b6060806060806060806060806060806125fb6130aa565b60018c60405161260b919061396f565b9081526020016040518091039020600b0160405180610140016040529081600082018054600181600116156101000203166002900480601f0160208091040260200160405190810160405280929190818152602001828054600181600116156101000203166002900480156126c15780601f10612696576101008083540402835291602001916126c1565b820191906000526020600020905b8154815290600101906020018083116126a457829003601f168201915b50505050508152602001600182018054600181600116156101000203166002900480601f0160208091040260200160405190810160405280929190818152602001828054600181600116156101000203166002900480156127635780601f1061273857610100808354040283529160200191612763565b820191906000526020600020905b81548152906001019060200180831161274657829003601f168201915b50505050508152602001600282018054600181600116156101000203166002900480601f0160208091040260200160405190810160405280929190818152602001828054600181600116156101000203166002900480156128055780601f106127da57610100808354040283529160200191612805565b820191906000526020600020905b8154815290600101906020018083116127e857829003601f168201915b50505050508152602001600382018054600181600116156101000203166002900480601f0160208091040260200160405190810160405280929190818152602001828054600181600116156101000203166002900480156128a75780601f1061287c576101008083540402835291602001916128a7565b820191906000526020600020905b81548152906001019060200180831161288a57829003601f168201915b50505050508152602001600482018054600181600116156101000203166002900480601f0160208091040260200160405190810160405280929190818152602001828054600181600116156101000203166002900480156129495780601f1061291e57610100808354040283529160200191612949565b820191906000526020600020905b81548152906001019060200180831161292c57829003601f168201915b50505050508152602001600582018054600181600116156101000203166002900480601f0160208091040260200160405190810160405280929190818152602001828054600181600116156101000203166002900480156129eb5780601f106129c0576101008083540402835291602001916129eb565b820191906000526020600020905b8154815290600101906020018083116129ce57829003601f168201915b50505050508152602001600682018054600181600116156101000203166002900480601f016020809104026020016040519081016040528092919081815260200182805460018160011615610100020316600290048015612a8d5780601f10612a6257610100808354040283529160200191612a8d565b820191906000526020600020905b815481529060010190602001808311612a7057829003601f168201915b50505050508152602001600782018054600181600116156101000203166002900480601f016020809104026020016040519081016040528092919081815260200182805460018160011615610100020316600290048015612b2f5780601f10612b0457610100808354040283529160200191612b2f565b820191906000526020600020905b815481529060010190602001808311612b1257829003601f168201915b50505050508152602001600882018054600181600116156101000203166002900480601f016020809104026020016040519081016040528092919081815260200182805460018160011615610100020316600290048015612bd15780601f10612ba657610100808354040283529160200191612bd1565b820191906000526020600020905b815481529060010190602001808311612bb457829003601f168201915b50505050508152602001600982018054600181600116156101000203166002900480601f016020809104026020016040519081016040528092919081815260200182805460018160011615610100020316600290048015612c735780601f10612c4857610100808354040283529160200191612c73565b820191906000526020600020905b815481529060010190602001808311612c5657829003601f168201915b5050505050815250509050806000015181602001518260400151836060015184608001518560a001518660c001518760e001518861010001518961012001518999508898508797508696508595508494508393508292508191508090509a509a509a509a509a509a509a509a509a509a50509193959799509193959799565b6060806060600184604051612d07919061396f565b9081526020016040518091039020600301600701600185604051612d2b919061396f565b9081526020016040518091039020600b01600901600186604051612d4f919061396f565b9081526020016040518091039020601501600201828054600181600116156101000203166002900480601f016020809104026020016040519081016040528092919081815260200182805460018160011615610100020316600290048015612df85780601f10612dcd57610100808354040283529160200191612df8565b820191906000526020600020905b815481529060010190602001808311612ddb57829003601f168201915b50505050509250818054600181600116156101000203166002900480601f016020809104026020016040519081016040528092919081815260200182805460018160011615610100020316600290048015612e945780601f10612e6957610100808354040283529160200191612e94565b820191906000526020600020905b815481529060010190602001808311612e7757829003601f168201915b50505050509150808054600181600116156101000203166002900480601f016020809104026020016040519081016040528092919081815260200182805460018160011615610100020316600290048015612f305780601f10612f0557610100808354040283529160200191612f30565b820191906000526020600020905b815481529060010190602001808311612f1357829003601f168201915b505050505090509250925092509193909250565b828054600181600116156101000203166002900490600052602060002090601f016020900481019282601f10612f8557805160ff1916838001178555612fb3565b82800160010185558215612fb3579182015b82811115612fb2578251825591602001919060010190612f97565b5b509050612fc0919061314a565b5090565b828054600181600116156101000203166002900490600052602060002090601f016020900481019282601f1061300557805160ff1916838001178555613033565b82800160010185558215613033579182015b82811115613032578251825591602001919060010190613017565b5b509050613040919061314a565b5090565b60405180606001604052806060815260200160608152602001606081525090565b60405180610100016040528060608152602001606081526020016060815260200160608152602001606081526020016060815260200160608152602001606081525090565b604051806101400160405280606081526020016060815260200160608152602001606081526020016060815260200160608152602001606081526020016060815260200160608152602001606081525090565b6040518060a0016040528061311061316f565b815260200161311d6131a6565b815260200161312a6131eb565b815260200161313761323e565b815260200161314461325f565b81525090565b61316c91905b80821115613168576000816000905550600101613150565b5090565b90565b6040518060600160405280600073ffffffffffffffffffffffffffffffffffffffff16815260200160608152602001606081525090565b60405180610100016040528060608152602001606081526020016060815260200160608152602001606081526020016060815260200160608152602001606081525090565b604051806101400160405280606081526020016060815260200160608152602001606081526020016060815260200160608152602001606081526020016060815260200160608152602001606081525090565b60405180606001604052806060815260200160608152602001606081525090565b6040518060200160405280606081525090565b60008135905061328181613d75565b92915050565b600082601f83011261329857600080fd5b81356132ab6132a682613c48565b613c1b565b915080825260208301602083018583830111156132c757600080fd5b6132d2838284613d22565b50505092915050565b6000602082840312156132ed57600080fd5b600082013567ffffffffffffffff81111561330757600080fd5b61331384828501613287565b91505092915050565b60008060006060848603121561333157600080fd5b600084013567ffffffffffffffff81111561334b57600080fd5b61335786828701613287565b935050602084013567ffffffffffffffff81111561337457600080fd5b61338086828701613287565b925050604061339186828701613272565b9150509250925092565b600080600080608085870312156133b157600080fd5b600085013567ffffffffffffffff8111156133cb57600080fd5b6133d787828801613287565b945050602085013567ffffffffffffffff8111156133f457600080fd5b61340087828801613287565b935050604085013567ffffffffffffffff81111561341d57600080fd5b61342987828801613287565b925050606085013567ffffffffffffffff81111561344657600080fd5b61345287828801613287565b91505092959194509250565b60008060008060008060008060006101208a8c03121561347d57600080fd5b60008a013567ffffffffffffffff81111561349757600080fd5b6134a38c828d01613287565b99505060208a013567ffffffffffffffff8111156134c057600080fd5b6134cc8c828d01613287565b98505060408a013567ffffffffffffffff8111156134e957600080fd5b6134f58c828d01613287565b97505060608a013567ffffffffffffffff81111561351257600080fd5b61351e8c828d01613287565b96505060808a013567ffffffffffffffff81111561353b57600080fd5b6135478c828d01613287565b95505060a08a013567ffffffffffffffff81111561356457600080fd5b6135708c828d01613287565b94505060c08a013567ffffffffffffffff81111561358d57600080fd5b6135998c828d01613287565b93505060e08a013567ffffffffffffffff8111156135b657600080fd5b6135c28c828d01613287565b9250506101008a013567ffffffffffffffff8111156135e057600080fd5b6135ec8c828d01613287565b9150509295985092959850929598565b60008060008060008060008060008060006101608c8e03121561361e57600080fd5b60008c013567ffffffffffffffff81111561363857600080fd5b6136448e828f01613287565b9b505060208c013567ffffffffffffffff81111561366157600080fd5b61366d8e828f01613287565b9a505060408c013567ffffffffffffffff81111561368a57600080fd5b6136968e828f01613287565b99505060608c013567ffffffffffffffff8111156136b357600080fd5b6136bf8e828f01613287565b98505060808c013567ffffffffffffffff8111156136dc57600080fd5b6136e88e828f01613287565b97505060a08c013567ffffffffffffffff81111561370557600080fd5b6137118e828f01613287565b96505060c08c013567ffffffffffffffff81111561372e57600080fd5b61373a8e828f01613287565b95505060e08c013567ffffffffffffffff81111561375757600080fd5b6137638e828f01613287565b9450506101008c013567ffffffffffffffff81111561378157600080fd5b61378d8e828f01613287565b9350506101208c013567ffffffffffffffff8111156137ab57600080fd5b6137b78e828f01613287565b9250506101408c013567ffffffffffffffff8111156137d557600080fd5b6137e18e828f01613287565b9150509295989b509295989b9093969950565b600061380083836138f6565b905092915050565b61381181613cf0565b82525050565b600061382282613c84565b61382c8185613cb2565b93508360208202850161383e85613c74565b8060005b8581101561387a578484038952815161385b85826137f4565b945061386683613ca5565b925060208a01995050600181019050613842565b50829750879550505050505092915050565b600061389782613c9a565b6138a18185613cd4565b93506138b1818560208601613d31565b6138ba81613d64565b840191505092915050565b60006138d082613c9a565b6138da8185613ce5565b93506138ea818560208601613d31565b80840191505092915050565b600061390182613c8f565b61390b8185613cc3565b935061391b818560208601613d31565b61392481613d64565b840191505092915050565b600061393c601583613cd4565b91507f54657374494420616c72656164792065786973747300000000000000000000006000830152602082019050919050565b600061397b82846138c5565b915081905092915050565b600060a08201905061399b6000830188613808565b81810360208301526139ad818761388c565b905081810360408301526139c1818661388c565b905081810360608301526139d5818561388c565b905081810360808301526139e9818461388c565b90509695505050505050565b60006020820190508181036000830152613a0f8184613817565b905092915050565b60006060820190508181036000830152613a31818661388c565b90508181036020830152613a45818561388c565b90508181036040830152613a59818461388c565b9050949350505050565b6000610100820190508181036000830152613a7e818b61388c565b90508181036020830152613a92818a61388c565b90508181036040830152613aa6818961388c565b90508181036060830152613aba818861388c565b90508181036080830152613ace818761388c565b905081810360a0830152613ae2818661388c565b905081810360c0830152613af6818561388c565b905081810360e0830152613b0a818461388c565b90509998505050505050505050565b6000610140820190508181036000830152613b34818d61388c565b90508181036020830152613b48818c61388c565b90508181036040830152613b5c818b61388c565b90508181036060830152613b70818a61388c565b90508181036080830152613b84818961388c565b905081810360a0830152613b98818861388c565b905081810360c0830152613bac818761388c565b905081810360e0830152613bc0818661388c565b9050818103610100830152613bd5818561388c565b9050818103610120830152613bea818461388c565b90509b9a5050505050505050505050565b60006020820190508181036000830152613c148161392f565b9050919050565b6000604051905081810181811067ffffffffffffffff82111715613c3e57600080fd5b8060405250919050565b600067ffffffffffffffff821115613c5f57600080fd5b601f19601f8301169050602081019050919050565b6000819050602082019050919050565b600081519050919050565b600081519050919050565b600081519050919050565b6000602082019050919050565b600082825260208201905092915050565b600082825260208201905092915050565b600082825260208201905092915050565b600081905092915050565b6000613cfb82613d02565b9050919050565b600073ffffffffffffffffffffffffffffffffffffffff82169050919050565b82818337600083830152505050565b60005b83811015613d4f578082015181840152602081019050613d34565b83811115613d5e576000848401525b50505050565b6000601f19601f8301169050919050565b613d7e81613cf0565b8114613d8957600080fd5b5056fea365627a7a72315820482891d1c8f6e500675a713b274a0613833c1a9ace2fcc686af07b4d72e353d66c6578706572696d656e74616cf564736f6c63430005100040",
  "source": "// SPDX-License-Identifier: MIT\r\npragma solidity ^0.5.16;\r\npragma experimental ABIEncoderV2;\r\n\r\ncontract MentalHealth {\r\n    struct PatientCredentials {\r\n        address cryptoWalletAddress;\r\n        string healthID;\r\n        string testID;\r\n    }\r\n\r\n    struct mhtChildhoodDetails {\r\n        string questionOne;\r\n        string questionTwo;\r\n        string questionThree;\r\n        string questionFour;\r\n        string questionFive;\r\n        string questionSix;\r\n        string questionSeven;\r\n        string score;\r\n    }\r\n\r\n    struct mhtPHQ9Details {\r\n        string questionOne;\r\n        string questionTwo;\r\n        string questionThree;\r\n        string questionFour;\r\n        string questionFive;\r\n        string questionSix;\r\n        string questionSeven;\r\n        string questionEight;\r\n        string questionNine;\r\n        string score;\r\n    }\r\n\r\n    struct SentimentDetails {\r\n        string textSentiment;\r\n        string audioHash;\r\n        string score;\r\n    }\r\n\r\n    struct VideoAnalysis {\r\n        string blinkCount;\r\n    }\r\n\r\n    struct PatientMHTest {\r\n        PatientCredentials credentials;\r\n        mhtChildhoodDetails mhtcd;\r\n        mhtPHQ9Details mhtphqDetails;\r\n        SentimentDetails sentimentDetails;\r\n        VideoAnalysis videoDetails;\r\n    }\r\n\r\n    mapping(string => string[]) private healthIDToTestIDs;\r\n    mapping(string => PatientMHTest) private testIDToPatientTest;\r\n\r\n    function initializePatientMHTest( string memory _healthID, string memory _testID, address _cryptoWalletAddress ) public {\r\n        require(bytes(testIDToPatientTest[_testID].credentials.testID).length == 0, \"TestID already exists\");\r\n\r\n        healthIDToTestIDs[_healthID].push(_testID);\r\n\r\n        testIDToPatientTest[_testID] = PatientMHTest({\r\n            credentials: PatientCredentials({\r\n                healthID: _healthID,\r\n                testID: _testID,\r\n                cryptoWalletAddress: _cryptoWalletAddress\r\n            }),\r\n            mhtcd: mhtChildhoodDetails(\"\", \"\", \"\", \"\", \"\", \"\", \"\", \"\"),\r\n            mhtphqDetails: mhtPHQ9Details(\"\", \"\", \"\", \"\", \"\", \"\", \"\", \"\", \"\", \"\"),\r\n            sentimentDetails: SentimentDetails(\"\", \"\", \"\"),\r\n            videoDetails: VideoAnalysis(\"\")\r\n        });\r\n    }\r\n\r\n    function initializeChildhoodDetails( string memory _testID, string memory _questionOne, string memory _questionTwo, string memory _questionThree, string memory _questionFour, string memory _questionFive,string memory _questionSix, string memory _questionSeven, string memory _score ) public {\r\n        mhtChildhoodDetails memory mhtcd = mhtChildhoodDetails({\r\n            questionOne: _questionOne,\r\n            questionTwo: _questionTwo,\r\n            questionThree: _questionThree,\r\n            questionFour: _questionFour,\r\n            questionFive: _questionFive,\r\n            questionSix: _questionSix,\r\n            questionSeven: _questionSeven,\r\n            score: _score\r\n        });\r\n\r\n        testIDToPatientTest[_testID].mhtcd = mhtcd;\r\n    }\r\n\r\n    function initializePHQ9Details( string memory _testID, string memory _questionOne, string memory _questionTwo, string memory _questionThree, string memory _questionFour, string memory _questionFive, string memory _questionSix, string memory _questionSeven, string memory _questionEight, string memory _questionNine, string memory _score ) public {\r\n        mhtPHQ9Details memory mhtphqDetails = mhtPHQ9Details({\r\n            questionOne: _questionOne,\r\n            questionTwo: _questionTwo,\r\n            questionThree: _questionThree,\r\n            questionFour: _questionFour,\r\n            questionFive: _questionFive,\r\n            questionSix: _questionSix,\r\n            questionSeven: _questionSeven,\r\n            questionEight: _questionEight,\r\n            questionNine: _questionNine,\r\n            score: _score\r\n        });\r\n\r\n        testIDToPatientTest[_testID].mhtphqDetails = mhtphqDetails;\r\n    }\r\n\r\n    function initializeSentimentDetails( string memory _testID, string memory _text, string memory _hash, string memory _score ) public {\r\n        SentimentDetails memory sentimentDetails = SentimentDetails({\r\n            textSentiment: _text,\r\n            audioHash: _hash,\r\n            score: _score\r\n        });\r\n\r\n        testIDToPatientTest[_testID].sentimentDetails = sentimentDetails;\r\n    }\r\n\r\n    function getAllTestIDs(string memory _healthID)  public view  returns (string[] memory _testIDs)  {\r\n        return healthIDToTestIDs[_healthID];\r\n    }\r\n\r\n    function getChildhoodDetails(string memory _testID)  public view  returns ( string memory _questionOne, string memory _questionTwo, string memory _questionThree, string memory _questionFour, string memory _questionFive, string memory _questionSix, string memory _questionSeven, string memory _score ) {\r\n        mhtChildhoodDetails memory details = testIDToPatientTest[_testID].mhtcd;\r\n        return (\r\n            details.questionOne,\r\n            details.questionTwo,\r\n            details.questionThree,\r\n            details.questionFour,\r\n            details.questionFive,\r\n            details.questionSix,\r\n            details.questionSeven,\r\n            details.score\r\n        );\r\n    }\r\n\r\n    function getPHQ9Details(string memory _testID)  public view  returns ( string memory _questionOne, string memory _questionTwo, string memory _questionThree, string memory _questionFour, string memory _questionFive, string memory _questionSix, string memory _questionSeven, string memory _questionEight, string memory _questionNine, string memory _score )  {\r\n        mhtPHQ9Details memory details = testIDToPatientTest[_testID].mhtphqDetails;\r\n        return (\r\n            details.questionOne,\r\n            details.questionTwo,\r\n            details.questionThree,\r\n            details.questionFour,\r\n            details.questionFive,\r\n            details.questionSix,\r\n            details.questionSeven,\r\n            details.questionEight,\r\n            details.questionNine,\r\n            details.score\r\n        );\r\n    }\r\n\r\n    function getSentimentDetails(string memory _testID)  public view  returns ( string memory _textSentiment, string memory _audioHash, string memory _score ) {\r\n        SentimentDetails memory details = testIDToPatientTest[_testID].sentimentDetails;\r\n        return (\r\n            details.textSentiment,\r\n            details.audioHash,\r\n            details.score\r\n        );\r\n    }\r\n\r\n    function getAllScores(string memory _testID)  public view  returns (string memory _historyScore, string memory _phq9Score, string memory _sentimentalScore) {\r\n        return (\r\n            testIDToPatientTest[_testID].mhtcd.score,\r\n            testIDToPatientTest[_testID].mhtphqDetails.score,\r\n            testIDToPatientTest[_testID].sentimentDetails.score\r\n        );\r\n    }\r\n\r\n    function getCompleteTestDetails(string memory _testID)  public view  returns (address _cryptoWalletAddress,string memory _healthID,string memory _childhoodScore,string memory _phq9Score,string memory _sentimentalScore )  {\r\n        PatientMHTest memory testDetails = testIDToPatientTest[_testID];\r\n        return (\r\n            testDetails.credentials.cryptoWalletAddress,\r\n            testDetails.credentials.healthID,\r\n            testDetails.mhtcd.score,\r\n            testDetails.mhtphqDetails.score,\r\n            testDetails.sentimentDetails.score\r\n        );\r\n    }\r\n}",
  "sourcePath": "C:\\Users\\Aman\\Desktop\\GITHUB\\WellWise_Core\\src\\contracts\\MentalHealth.sol",
  "compiler": {
    "name": "solc",
    "version": "0.5.16+commit.9c3226ce.Emscripten.clang"
  },
  "schemaVersion": "3.4.16",
  "updatedAt": "2025-01-11T18:14:32.734Z",
  "networkType": "ethereum",
  "devdoc": {
    "methods": {}
  },
  "userdoc": {
    "methods": {}
  }
}