{
  "contractName": "MentalHealth",
  "abi": [
    {
      "constant": false,
      "inputs": [
        {
          "internalType": "string",
          "name": "_healthID",
          "type": "string"
        },
        {
          "internalType": "string",
          "name": "_testID",
          "type": "string"
        },
        {
          "internalType": "address",
          "name": "_cryptoWalletAddress",
          "type": "address"
        }
      ],
      "name": "initializePatientMHTest",
      "outputs": [],
      "payable": false,
      "stateMutability": "nonpayable",
      "type": "function"
    },
    {
      "constant": false,
      "inputs": [
        {
          "internalType": "string",
          "name": "_testID",
          "type": "string"
        },
        {
          "internalType": "string",
          "name": "_questionOne",
          "type": "string"
        },
        {
          "internalType": "string",
          "name": "_questionTwo",
          "type": "string"
        },
        {
          "internalType": "string",
          "name": "_questionThree",
          "type": "string"
        },
        {
          "internalType": "string",
          "name": "_questionFour",
          "type": "string"
        },
        {
          "internalType": "string",
          "name": "_questionFive",
          "type": "string"
        },
        {
          "internalType": "string",
          "name": "_questionSix",
          "type": "string"
        },
        {
          "internalType": "string",
          "name": "_questionSeven",
          "type": "string"
        },
        {
          "internalType": "string",
          "name": "_score",
          "type": "string"
        }
      ],
      "name": "initializeChildhoodDetails",
      "outputs": [],
      "payable": false,
      "stateMutability": "nonpayable",
      "type": "function"
    },
    {
      "constant": false,
      "inputs": [
        {
          "internalType": "string",
          "name": "_testID",
          "type": "string"
        },
        {
          "internalType": "string",
          "name": "_questionOne",
          "type": "string"
        },
        {
          "internalType": "string",
          "name": "_questionTwo",
          "type": "string"
        },
        {
          "internalType": "string",
          "name": "_questionThree",
          "type": "string"
        },
        {
          "internalType": "string",
          "name": "_questionFour",
          "type": "string"
        },
        {
          "internalType": "string",
          "name": "_questionFive",
          "type": "string"
        },
        {
          "internalType": "string",
          "name": "_questionSix",
          "type": "string"
        },
        {
          "internalType": "string",
          "name": "_questionSeven",
          "type": "string"
        },
        {
          "internalType": "string",
          "name": "_questionEight",
          "type": "string"
        },
        {
          "internalType": "string",
          "name": "_questionNine",
          "type": "string"
        },
        {
          "internalType": "string",
          "name": "_score",
          "type": "string"
        }
      ],
      "name": "initializePHQ9Details",
      "outputs": [],
      "payable": false,
      "stateMutability": "nonpayable",
      "type": "function"
    },
    {
      "constant": false,
      "inputs": [
        {
          "internalType": "string",
          "name": "_testID",
          "type": "string"
        },
        {
          "internalType": "string",
          "name": "_text",
          "type": "string"
        },
        {
          "internalType": "string",
          "name": "_hash",
          "type": "string"
        },
        {
          "internalType": "string",
          "name": "_sentimentOne",
          "type": "string"
        },
        {
          "internalType": "string",
          "name": "_sentimentTwo",
          "type": "string"
        },
        {
          "internalType": "string",
          "name": "_score",
          "type": "string"
        }
      ],
      "name": "initializeSentimentDetails",
      "outputs": [],
      "payable": false,
      "stateMutability": "nonpayable",
      "type": "function"
    },
    {
      "constant": false,
      "inputs": [
        {
          "internalType": "string",
          "name": "_testID",
          "type": "string"
        },
        {
          "internalType": "string",
          "name": "_totalBlink",
          "type": "string"
        },
        {
          "internalType": "string",
          "name": "_blinkPerMinute",
          "type": "string"
        },
        {
          "internalType": "string",
          "name": "_cvScore",
          "type": "string"
        }
      ],
      "name": "initializeEmotionDetails",
      "outputs": [],
      "payable": false,
      "stateMutability": "nonpayable",
      "type": "function"
    },
    {
      "constant": true,
      "inputs": [
        {
          "internalType": "string",
          "name": "_healthID",
          "type": "string"
        }
      ],
      "name": "getAllTestIDs",
      "outputs": [
        {
          "internalType": "string[]",
          "name": "_testIDs",
          "type": "string[]"
        }
      ],
      "payable": false,
      "stateMutability": "view",
      "type": "function"
    },
    {
      "constant": true,
      "inputs": [
        {
          "internalType": "string",
          "name": "_testID",
          "type": "string"
        }
      ],
      "name": "getChildhoodDetails",
      "outputs": [
        {
          "internalType": "string",
          "name": "_questionOne",
          "type": "string"
        },
        {
          "internalType": "string",
          "name": "_questionTwo",
          "type": "string"
        },
        {
          "internalType": "string",
          "name": "_questionThree",
          "type": "string"
        },
        {
          "internalType": "string",
          "name": "_questionFour",
          "type": "string"
        },
        {
          "internalType": "string",
          "name": "_questionFive",
          "type": "string"
        },
        {
          "internalType": "string",
          "name": "_questionSix",
          "type": "string"
        },
        {
          "internalType": "string",
          "name": "_questionSeven",
          "type": "string"
        },
        {
          "internalType": "string",
          "name": "_score",
          "type": "string"
        }
      ],
      "payable": false,
      "stateMutability": "view",
      "type": "function"
    },
    {
      "constant": true,
      "inputs": [
        {
          "internalType": "string",
          "name": "_testID",
          "type": "string"
        }
      ],
      "name": "getPHQ9Details",
      "outputs": [
        {
          "internalType": "string",
          "name": "_questionOne",
          "type": "string"
        },
        {
          "internalType": "string",
          "name": "_questionTwo",
          "type": "string"
        },
        {
          "internalType": "string",
          "name": "_questionThree",
          "type": "string"
        },
        {
          "internalType": "string",
          "name": "_questionFour",
          "type": "string"
        },
        {
          "internalType": "string",
          "name": "_questionFive",
          "type": "string"
        },
        {
          "internalType": "string",
          "name": "_questionSix",
          "type": "string"
        },
        {
          "internalType": "string",
          "name": "_questionSeven",
          "type": "string"
        },
        {
          "internalType": "string",
          "name": "_questionEight",
          "type": "string"
        },
        {
          "internalType": "string",
          "name": "_questionNine",
          "type": "string"
        },
        {
          "internalType": "string",
          "name": "_score",
          "type": "string"
        }
      ],
      "payable": false,
      "stateMutability": "view",
      "type": "function"
    },
    {
      "constant": true,
      "inputs": [
        {
          "internalType": "string",
          "name": "_testID",
          "type": "string"
        }
      ],
      "name": "getSentimentDetails",
      "outputs": [
        {
          "internalType": "string",
          "name": "_textSentiment",
          "type": "string"
        },
        {
          "internalType": "string",
          "name": "_audioHash",
          "type": "string"
        },
        {
          "internalType": "string",
          "name": "_sentimentOne",
          "type": "string"
        },
        {
          "internalType": "string",
          "name": "_sentimentTwo",
          "type": "string"
        },
        {
          "internalType": "string",
          "name": "_score",
          "type": "string"
        }
      ],
      "payable": false,
      "stateMutability": "view",
      "type": "function"
    },
    {
      "constant": true,
      "inputs": [
        {
          "internalType": "string",
          "name": "_testID",
          "type": "string"
        }
      ],
      "name": "getAllScores",
      "outputs": [
        {
          "internalType": "string",
          "name": "_historyScore",
          "type": "string"
        },
        {
          "internalType": "string",
          "name": "_phq9Score",
          "type": "string"
        },
        {
          "internalType": "string",
          "name": "_sentimentalScore",
          "type": "string"
        },
        {
          "internalType": "string",
          "name": "_videoScore",
          "type": "string"
        }
      ],
      "payable": false,
      "stateMutability": "view",
      "type": "function"
    },
    {
      "constant": true,
      "inputs": [
        {
          "internalType": "string",
          "name": "_testID",
          "type": "string"
        }
      ],
      "name": "getCompleteTestDetails",
      "outputs": [
        {
          "internalType": "address",
          "name": "_cryptoWalletAddress",
          "type": "address"
        },
        {
          "internalType": "string",
          "name": "_healthID",
          "type": "string"
        },
        {
          "internalType": "string",
          "name": "_childhoodScore",
          "type": "string"
        },
        {
          "internalType": "string",
          "name": "_phq9Score",
          "type": "string"
        },
        {
          "internalType": "string",
          "name": "_sentimentalScore",
          "type": "string"
        }
      ],
      "payable": false,
      "stateMutability": "view",
      "type": "function"
    }
  ],
  "bytecode": "0x608060405234801561001057600080fd5b50614648806100206000396000f3fe608060405234801561001057600080fd5b50600436106100a95760003560e01c8063890d116411610071578063890d1164146101665780638bc735831461019d578063b8b9369e146101b9578063d34a2e46146101d5578063f2f1ef2814610209578063fcc29b8e14610242576100a9565b806318ccc2f0146100ae5780631f15ea94146100ca578063201b986b146100e65780632f5cb220146101025780637133067114610132575b600080fd5b6100c860048036036100c39190810190613a70565b610275565b005b6100e460048036036100df91908101906139f1565b61031d565b005b61010060048036036100fb9190810190613b33565b610a60565b005b61011c600480360361011791908101906139b0565b610b50565b60405161012991906141e3565b60405180910390f35b61014c600480360361014791908101906139b0565b610c57565b60405161015d959493929190614266565b60405180910390f35b610180600480360361017b91908101906139b0565b610ffb565b6040516101949897969594939291906142dc565b60405180910390f35b6101b760048036036101b29190810190613c4c565b6115aa565b005b6101d360048036036101ce9190810190613dea565b611707565b005b6101ef60048036036101ea91908101906139b0565b6118ae565b604051610200959493929190614174565b60405180910390f35b610223600480360361021e91908101906139b0565b612bab565b6040516102399a99989796959493929190614392565b60405180910390f35b61025c600480360361025791908101906139b0565b6132b9565b60405161026c9493929190614205565b60405180910390f35b61027d6135ce565b6040518060600160405280858152602001848152602001838152509050806001866040516102ab919061415d565b9081526020016040518091039020601a0160008201518160000190805190602001906102d89291906135ef565b5060208201518160010190805190602001906102f59291906135ef565b5060408201518160020190805190602001906103129291906135ef565b509050505050505050565b600060018360405161032f919061415d565b908152602001604051809103902060000160020180546001816001161561010002031660029004905014610398576040517f08c379a000000000000000000000000000000000000000000000000000000000815260040161038f90614474565b60405180910390fd5b6000836040516103a8919061415d565b90815260200160405180910390208290806001815401808255809150509060018203906000526020600020016000909192909190915090805190602001906103f192919061366f565b50506040518060a0016040528060405180606001604052808473ffffffffffffffffffffffffffffffffffffffff1681526020018681526020018581525081526020016040518061010001604052806040518060200160405280600081525081526020016040518060200160405280600081525081526020016040518060200160405280600081525081526020016040518060200160405280600081525081526020016040518060200160405280600081525081526020016040518060200160405280600081525081526020016040518060200160405280600081525081526020016040518060200160405280600081525081525081526020016040518061014001604052806040518060200160405280600081525081526020016040518060200160405280600081525081526020016040518060200160405280600081525081526020016040518060200160405280600081525081526020016040518060200160405280600081525081526020016040518060200160405280600081525081526020016040518060200160405280600081525081526020016040518060200160405280600081525081526020016040518060200160405280600081525081526020016040518060200160405280600081525081525081526020016040518060a0016040528060405180602001604052806000815250815260200160405180602001604052806000815250815260200160405180602001604052806000815250815260200160405180602001604052806000815250815260200160405180602001604052806000815250815250815260200160405180606001604052806040518060200160405280600081525081526020016040518060200160405280600081525081526020016040518060200160405280600081525081525081525060018360405161069e919061415d565b908152602001604051809103902060008201518160000160008201518160000160006101000a81548173ffffffffffffffffffffffffffffffffffffffff021916908373ffffffffffffffffffffffffffffffffffffffff16021790555060208201518160010190805190602001906107189291906135ef565b5060408201518160020190805190602001906107359291906135ef565b505050602082015181600301600082015181600001908051906020019061075d9291906135ef565b50602082015181600101908051906020019061077a9291906135ef565b5060408201518160020190805190602001906107979291906135ef565b5060608201518160030190805190602001906107b49291906135ef565b5060808201518160040190805190602001906107d19291906135ef565b5060a08201518160050190805190602001906107ee9291906135ef565b5060c082015181600601908051906020019061080b9291906135ef565b5060e08201518160070190805190602001906108289291906135ef565b505050604082015181600b0160008201518160000190805190602001906108509291906135ef565b50602082015181600101908051906020019061086d9291906135ef565b50604082015181600201908051906020019061088a9291906135ef565b5060608201518160030190805190602001906108a79291906135ef565b5060808201518160040190805190602001906108c49291906135ef565b5060a08201518160050190805190602001906108e19291906135ef565b5060c08201518160060190805190602001906108fe9291906135ef565b5060e082015181600701908051906020019061091b9291906135ef565b506101008201518160080190805190602001906109399291906135ef565b506101208201518160090190805190602001906109579291906135ef565b505050606082015181601501600082015181600001908051906020019061097f9291906135ef565b50602082015181600101908051906020019061099c9291906135ef565b5060408201518160020190805190602001906109b99291906135ef565b5060608201518160030190805190602001906109d69291906135ef565b5060808201518160040190805190602001906109f39291906135ef565b505050608082015181601a016000820151816000019080519060200190610a1b9291906135ef565b506020820151816001019080519060200190610a389291906135ef565b506040820151816002019080519060200190610a559291906135ef565b505050905050505050565b610a686136ef565b6040518060a0016040528087815260200186815260200185815260200184815260200183815250905080600188604051610aa2919061415d565b90815260200160405180910390206015016000820151816000019080519060200190610acf9291906135ef565b506020820151816001019080519060200190610aec9291906135ef565b506040820151816002019080519060200190610b099291906135ef565b506060820151816003019080519060200190610b269291906135ef565b506080820151816004019080519060200190610b439291906135ef565b5090505050505050505050565b6060600082604051610b62919061415d565b9081526020016040518091039020805480602002602001604051908101604052809291908181526020016000905b82821015610c4c578382906000526020600020018054600181600116156101000203166002900480601f016020809104026020016040519081016040528092919081815260200182805460018160011615610100020316600290048015610c385780601f10610c0d57610100808354040283529160200191610c38565b820191906000526020600020905b815481529060010190602001808311610c1b57829003601f168201915b505050505081526020019060010190610b90565b505050509050919050565b6060806060806060610c676136ef565b600187604051610c77919061415d565b90815260200160405180910390206015016040518060a0016040529081600082018054600181600116156101000203166002900480601f016020809104026020016040519081016040528092919081815260200182805460018160011615610100020316600290048015610d2c5780601f10610d0157610100808354040283529160200191610d2c565b820191906000526020600020905b815481529060010190602001808311610d0f57829003601f168201915b50505050508152602001600182018054600181600116156101000203166002900480601f016020809104026020016040519081016040528092919081815260200182805460018160011615610100020316600290048015610dce5780601f10610da357610100808354040283529160200191610dce565b820191906000526020600020905b815481529060010190602001808311610db157829003601f168201915b50505050508152602001600282018054600181600116156101000203166002900480601f016020809104026020016040519081016040528092919081815260200182805460018160011615610100020316600290048015610e705780601f10610e4557610100808354040283529160200191610e70565b820191906000526020600020905b815481529060010190602001808311610e5357829003601f168201915b50505050508152602001600382018054600181600116156101000203166002900480601f016020809104026020016040519081016040528092919081815260200182805460018160011615610100020316600290048015610f125780601f10610ee757610100808354040283529160200191610f12565b820191906000526020600020905b815481529060010190602001808311610ef557829003601f168201915b50505050508152602001600482018054600181600116156101000203166002900480601f016020809104026020016040519081016040528092919081815260200182805460018160011615610100020316600290048015610fb45780601f10610f8957610100808354040283529160200191610fb4565b820191906000526020600020905b815481529060010190602001808311610f9757829003601f168201915b505050505081525050905080600001518160200151826040015183606001518460800151849450839350829250819150809050955095509550955095505091939590929450565b60608060608060608060608061100f61371e565b60018a60405161101f919061415d565b908152602001604051809103902060030160405180610100016040529081600082018054600181600116156101000203166002900480601f0160208091040260200160405190810160405280929190818152602001828054600181600116156101000203166002900480156110d55780601f106110aa576101008083540402835291602001916110d5565b820191906000526020600020905b8154815290600101906020018083116110b857829003601f168201915b50505050508152602001600182018054600181600116156101000203166002900480601f0160208091040260200160405190810160405280929190818152602001828054600181600116156101000203166002900480156111775780601f1061114c57610100808354040283529160200191611177565b820191906000526020600020905b81548152906001019060200180831161115a57829003601f168201915b50505050508152602001600282018054600181600116156101000203166002900480601f0160208091040260200160405190810160405280929190818152602001828054600181600116156101000203166002900480156112195780601f106111ee57610100808354040283529160200191611219565b820191906000526020600020905b8154815290600101906020018083116111fc57829003601f168201915b50505050508152602001600382018054600181600116156101000203166002900480601f0160208091040260200160405190810160405280929190818152602001828054600181600116156101000203166002900480156112bb5780601f10611290576101008083540402835291602001916112bb565b820191906000526020600020905b81548152906001019060200180831161129e57829003601f168201915b50505050508152602001600482018054600181600116156101000203166002900480601f01602080910402602001604051908101604052809291908181526020018280546001816001161561010002031660029004801561135d5780601f106113325761010080835404028352916020019161135d565b820191906000526020600020905b81548152906001019060200180831161134057829003601f168201915b50505050508152602001600582018054600181600116156101000203166002900480601f0160208091040260200160405190810160405280929190818152602001828054600181600116156101000203166002900480156113ff5780601f106113d4576101008083540402835291602001916113ff565b820191906000526020600020905b8154815290600101906020018083116113e257829003601f168201915b50505050508152602001600682018054600181600116156101000203166002900480601f0160208091040260200160405190810160405280929190818152602001828054600181600116156101000203166002900480156114a15780601f10611476576101008083540402835291602001916114a1565b820191906000526020600020905b81548152906001019060200180831161148457829003601f168201915b50505050508152602001600782018054600181600116156101000203166002900480601f0160208091040260200160405190810160405280929190818152602001828054600181600116156101000203166002900480156115435780601f1061151857610100808354040283529160200191611543565b820191906000526020600020905b81548152906001019060200180831161152657829003601f168201915b5050505050815250509050806000015181602001518260400151836060015184608001518560a001518660c001518760e001518797508696508595508494508393508292508191508090509850985098509850985098509850985050919395975091939597565b6115b261371e565b6040518061010001604052808a81526020018981526020018881526020018781526020018681526020018581526020018481526020018381525090508060018b6040516115ff919061415d565b9081526020016040518091039020600301600082015181600001908051906020019061162c9291906135ef565b5060208201518160010190805190602001906116499291906135ef565b5060408201518160020190805190602001906116669291906135ef565b5060608201518160030190805190602001906116839291906135ef565b5060808201518160040190805190602001906116a09291906135ef565b5060a08201518160050190805190602001906116bd9291906135ef565b5060c08201518160060190805190602001906116da9291906135ef565b5060e08201518160070190805190602001906116f79291906135ef565b5090505050505050505050505050565b61170f613763565b6040518061014001604052808c81526020018b81526020018a81526020018981526020018881526020018781526020018681526020018581526020018481526020018381525090508060018d604051611768919061415d565b9081526020016040518091039020600b0160008201518160000190805190602001906117959291906135ef565b5060208201518160010190805190602001906117b29291906135ef565b5060408201518160020190805190602001906117cf9291906135ef565b5060608201518160030190805190602001906117ec9291906135ef565b5060808201518160040190805190602001906118099291906135ef565b5060a08201518160050190805190602001906118269291906135ef565b5060c08201518160060190805190602001906118439291906135ef565b5060e08201518160070190805190602001906118609291906135ef565b5061010082015181600801908051906020019061187e9291906135ef565b5061012082015181600901908051906020019061189c9291906135ef565b50905050505050505050505050505050565b60006060806060806118be6137b6565b6001876040516118ce919061415d565b90815260200160405180910390206040518060a0016040529081600082016040518060600160405290816000820160009054906101000a900473ffffffffffffffffffffffffffffffffffffffff1673ffffffffffffffffffffffffffffffffffffffff1673ffffffffffffffffffffffffffffffffffffffff168152602001600182018054600181600116156101000203166002900480601f0160208091040260200160405190810160405280929190818152602001828054600181600116156101000203166002900480156119e65780601f106119bb576101008083540402835291602001916119e6565b820191906000526020600020905b8154815290600101906020018083116119c957829003601f168201915b50505050508152602001600282018054600181600116156101000203166002900480601f016020809104026020016040519081016040528092919081815260200182805460018160011615610100020316600290048015611a885780601f10611a5d57610100808354040283529160200191611a88565b820191906000526020600020905b815481529060010190602001808311611a6b57829003601f168201915b50505050508152505081526020016003820160405180610100016040529081600082018054600181600116156101000203166002900480601f016020809104026020016040519081016040528092919081815260200182805460018160011615610100020316600290048015611b3f5780601f10611b1457610100808354040283529160200191611b3f565b820191906000526020600020905b815481529060010190602001808311611b2257829003601f168201915b50505050508152602001600182018054600181600116156101000203166002900480601f016020809104026020016040519081016040528092919081815260200182805460018160011615610100020316600290048015611be15780601f10611bb657610100808354040283529160200191611be1565b820191906000526020600020905b815481529060010190602001808311611bc457829003601f168201915b50505050508152602001600282018054600181600116156101000203166002900480601f016020809104026020016040519081016040528092919081815260200182805460018160011615610100020316600290048015611c835780601f10611c5857610100808354040283529160200191611c83565b820191906000526020600020905b815481529060010190602001808311611c6657829003601f168201915b50505050508152602001600382018054600181600116156101000203166002900480601f016020809104026020016040519081016040528092919081815260200182805460018160011615610100020316600290048015611d255780601f10611cfa57610100808354040283529160200191611d25565b820191906000526020600020905b815481529060010190602001808311611d0857829003601f168201915b50505050508152602001600482018054600181600116156101000203166002900480601f016020809104026020016040519081016040528092919081815260200182805460018160011615610100020316600290048015611dc75780601f10611d9c57610100808354040283529160200191611dc7565b820191906000526020600020905b815481529060010190602001808311611daa57829003601f168201915b50505050508152602001600582018054600181600116156101000203166002900480601f016020809104026020016040519081016040528092919081815260200182805460018160011615610100020316600290048015611e695780601f10611e3e57610100808354040283529160200191611e69565b820191906000526020600020905b815481529060010190602001808311611e4c57829003601f168201915b50505050508152602001600682018054600181600116156101000203166002900480601f016020809104026020016040519081016040528092919081815260200182805460018160011615610100020316600290048015611f0b5780601f10611ee057610100808354040283529160200191611f0b565b820191906000526020600020905b815481529060010190602001808311611eee57829003601f168201915b50505050508152602001600782018054600181600116156101000203166002900480601f016020809104026020016040519081016040528092919081815260200182805460018160011615610100020316600290048015611fad5780601f10611f8257610100808354040283529160200191611fad565b820191906000526020600020905b815481529060010190602001808311611f9057829003601f168201915b5050505050815250508152602001600b820160405180610140016040529081600082018054600181600116156101000203166002900480601f0160208091040260200160405190810160405280929190818152602001828054600181600116156101000203166002900480156120645780601f1061203957610100808354040283529160200191612064565b820191906000526020600020905b81548152906001019060200180831161204757829003601f168201915b50505050508152602001600182018054600181600116156101000203166002900480601f0160208091040260200160405190810160405280929190818152602001828054600181600116156101000203166002900480156121065780601f106120db57610100808354040283529160200191612106565b820191906000526020600020905b8154815290600101906020018083116120e957829003601f168201915b50505050508152602001600282018054600181600116156101000203166002900480601f0160208091040260200160405190810160405280929190818152602001828054600181600116156101000203166002900480156121a85780601f1061217d576101008083540402835291602001916121a8565b820191906000526020600020905b81548152906001019060200180831161218b57829003601f168201915b50505050508152602001600382018054600181600116156101000203166002900480601f01602080910402602001604051908101604052809291908181526020018280546001816001161561010002031660029004801561224a5780601f1061221f5761010080835404028352916020019161224a565b820191906000526020600020905b81548152906001019060200180831161222d57829003601f168201915b50505050508152602001600482018054600181600116156101000203166002900480601f0160208091040260200160405190810160405280929190818152602001828054600181600116156101000203166002900480156122ec5780601f106122c1576101008083540402835291602001916122ec565b820191906000526020600020905b8154815290600101906020018083116122cf57829003601f168201915b50505050508152602001600582018054600181600116156101000203166002900480601f01602080910402602001604051908101604052809291908181526020018280546001816001161561010002031660029004801561238e5780601f106123635761010080835404028352916020019161238e565b820191906000526020600020905b81548152906001019060200180831161237157829003601f168201915b50505050508152602001600682018054600181600116156101000203166002900480601f0160208091040260200160405190810160405280929190818152602001828054600181600116156101000203166002900480156124305780601f1061240557610100808354040283529160200191612430565b820191906000526020600020905b81548152906001019060200180831161241357829003601f168201915b50505050508152602001600782018054600181600116156101000203166002900480601f0160208091040260200160405190810160405280929190818152602001828054600181600116156101000203166002900480156124d25780601f106124a7576101008083540402835291602001916124d2565b820191906000526020600020905b8154815290600101906020018083116124b557829003601f168201915b50505050508152602001600882018054600181600116156101000203166002900480601f0160208091040260200160405190810160405280929190818152602001828054600181600116156101000203166002900480156125745780601f1061254957610100808354040283529160200191612574565b820191906000526020600020905b81548152906001019060200180831161255757829003601f168201915b50505050508152602001600982018054600181600116156101000203166002900480601f0160208091040260200160405190810160405280929190818152602001828054600181600116156101000203166002900480156126165780601f106125eb57610100808354040283529160200191612616565b820191906000526020600020905b8154815290600101906020018083116125f957829003601f168201915b5050505050815250508152602001601582016040518060a0016040529081600082018054600181600116156101000203166002900480601f0160208091040260200160405190810160405280929190818152602001828054600181600116156101000203166002900480156126cc5780601f106126a1576101008083540402835291602001916126cc565b820191906000526020600020905b8154815290600101906020018083116126af57829003601f168201915b50505050508152602001600182018054600181600116156101000203166002900480601f01602080910402602001604051908101604052809291908181526020018280546001816001161561010002031660029004801561276e5780601f106127435761010080835404028352916020019161276e565b820191906000526020600020905b81548152906001019060200180831161275157829003601f168201915b50505050508152602001600282018054600181600116156101000203166002900480601f0160208091040260200160405190810160405280929190818152602001828054600181600116156101000203166002900480156128105780601f106127e557610100808354040283529160200191612810565b820191906000526020600020905b8154815290600101906020018083116127f357829003601f168201915b50505050508152602001600382018054600181600116156101000203166002900480601f0160208091040260200160405190810160405280929190818152602001828054600181600116156101000203166002900480156128b25780601f10612887576101008083540402835291602001916128b2565b820191906000526020600020905b81548152906001019060200180831161289557829003601f168201915b50505050508152602001600482018054600181600116156101000203166002900480601f0160208091040260200160405190810160405280929190818152602001828054600181600116156101000203166002900480156129545780601f1061292957610100808354040283529160200191612954565b820191906000526020600020905b81548152906001019060200180831161293757829003601f168201915b5050505050815250508152602001601a8201604051806060016040529081600082018054600181600116156101000203166002900480601f016020809104026020016040519081016040528092919081815260200182805460018160011615610100020316600290048015612a0a5780601f106129df57610100808354040283529160200191612a0a565b820191906000526020600020905b8154815290600101906020018083116129ed57829003601f168201915b50505050508152602001600182018054600181600116156101000203166002900480601f016020809104026020016040519081016040528092919081815260200182805460018160011615610100020316600290048015612aac5780601f10612a8157610100808354040283529160200191612aac565b820191906000526020600020905b815481529060010190602001808311612a8f57829003601f168201915b50505050508152602001600282018054600181600116156101000203166002900480601f016020809104026020016040519081016040528092919081815260200182805460018160011615610100020316600290048015612b4e5780601f10612b2357610100808354040283529160200191612b4e565b820191906000526020600020905b815481529060010190602001808311612b3157829003601f168201915b505050505081525050815250509050806000015160000151816000015160200151826020015160e0015183604001516101200151846060015160800151839350829250819150809050955095509550955095505091939590929450565b606080606080606080606080606080612bc2613763565b60018c604051612bd2919061415d565b9081526020016040518091039020600b0160405180610140016040529081600082018054600181600116156101000203166002900480601f016020809104026020016040519081016040528092919081815260200182805460018160011615610100020316600290048015612c885780601f10612c5d57610100808354040283529160200191612c88565b820191906000526020600020905b815481529060010190602001808311612c6b57829003601f168201915b50505050508152602001600182018054600181600116156101000203166002900480601f016020809104026020016040519081016040528092919081815260200182805460018160011615610100020316600290048015612d2a5780601f10612cff57610100808354040283529160200191612d2a565b820191906000526020600020905b815481529060010190602001808311612d0d57829003601f168201915b50505050508152602001600282018054600181600116156101000203166002900480601f016020809104026020016040519081016040528092919081815260200182805460018160011615610100020316600290048015612dcc5780601f10612da157610100808354040283529160200191612dcc565b820191906000526020600020905b815481529060010190602001808311612daf57829003601f168201915b50505050508152602001600382018054600181600116156101000203166002900480601f016020809104026020016040519081016040528092919081815260200182805460018160011615610100020316600290048015612e6e5780601f10612e4357610100808354040283529160200191612e6e565b820191906000526020600020905b815481529060010190602001808311612e5157829003601f168201915b50505050508152602001600482018054600181600116156101000203166002900480601f016020809104026020016040519081016040528092919081815260200182805460018160011615610100020316600290048015612f105780601f10612ee557610100808354040283529160200191612f10565b820191906000526020600020905b815481529060010190602001808311612ef357829003601f168201915b50505050508152602001600582018054600181600116156101000203166002900480601f016020809104026020016040519081016040528092919081815260200182805460018160011615610100020316600290048015612fb25780601f10612f8757610100808354040283529160200191612fb2565b820191906000526020600020905b815481529060010190602001808311612f9557829003601f168201915b50505050508152602001600682018054600181600116156101000203166002900480601f0160208091040260200160405190810160405280929190818152602001828054600181600116156101000203166002900480156130545780601f1061302957610100808354040283529160200191613054565b820191906000526020600020905b81548152906001019060200180831161303757829003601f168201915b50505050508152602001600782018054600181600116156101000203166002900480601f0160208091040260200160405190810160405280929190818152602001828054600181600116156101000203166002900480156130f65780601f106130cb576101008083540402835291602001916130f6565b820191906000526020600020905b8154815290600101906020018083116130d957829003601f168201915b50505050508152602001600882018054600181600116156101000203166002900480601f0160208091040260200160405190810160405280929190818152602001828054600181600116156101000203166002900480156131985780601f1061316d57610100808354040283529160200191613198565b820191906000526020600020905b81548152906001019060200180831161317b57829003601f168201915b50505050508152602001600982018054600181600116156101000203166002900480601f01602080910402602001604051908101604052809291908181526020018280546001816001161561010002031660029004801561323a5780601f1061320f5761010080835404028352916020019161323a565b820191906000526020600020905b81548152906001019060200180831161321d57829003601f168201915b5050505050815250509050806000015181602001518260400151836060015184608001518560a001518660c001518760e001518861010001518961012001518999508898508797508696508595508494508393508292508191508090509a509a509a509a509a509a509a509a509a509a50509193959799509193959799565b6060806060806001856040516132cf919061415d565b90815260200160405180910390206003016007016001866040516132f3919061415d565b9081526020016040518091039020600b01600901600187604051613317919061415d565b908152602001604051809103902060150160040160018860405161333b919061415d565b9081526020016040518091039020601a01600201838054600181600116156101000203166002900480601f0160208091040260200160405190810160405280929190818152602001828054600181600116156101000203166002900480156133e45780601f106133b9576101008083540402835291602001916133e4565b820191906000526020600020905b8154815290600101906020018083116133c757829003601f168201915b50505050509350828054600181600116156101000203166002900480601f0160208091040260200160405190810160405280929190818152602001828054600181600116156101000203166002900480156134805780601f1061345557610100808354040283529160200191613480565b820191906000526020600020905b81548152906001019060200180831161346357829003601f168201915b50505050509250818054600181600116156101000203166002900480601f01602080910402602001604051908101604052809291908181526020018280546001816001161561010002031660029004801561351c5780601f106134f15761010080835404028352916020019161351c565b820191906000526020600020905b8154815290600101906020018083116134ff57829003601f168201915b50505050509150808054600181600116156101000203166002900480601f0160208091040260200160405190810160405280929190818152602001828054600181600116156101000203166002900480156135b85780601f1061358d576101008083540402835291602001916135b8565b820191906000526020600020905b81548152906001019060200180831161359b57829003601f168201915b5050505050905093509350935093509193509193565b60405180606001604052806060815260200160608152602001606081525090565b828054600181600116156101000203166002900490600052602060002090601f016020900481019282601f1061363057805160ff191683800117855561365e565b8280016001018555821561365e579182015b8281111561365d578251825591602001919060010190613642565b5b50905061366b9190613803565b5090565b828054600181600116156101000203166002900490600052602060002090601f016020900481019282601f106136b057805160ff19168380011785556136de565b828001600101855582156136de579182015b828111156136dd5782518255916020019190600101906136c2565b5b5090506136eb9190613803565b5090565b6040518060a0016040528060608152602001606081526020016060815260200160608152602001606081525090565b60405180610100016040528060608152602001606081526020016060815260200160608152602001606081526020016060815260200160608152602001606081525090565b604051806101400160405280606081526020016060815260200160608152602001606081526020016060815260200160608152602001606081526020016060815260200160608152602001606081525090565b6040518060a001604052806137c9613828565b81526020016137d661385f565b81526020016137e36138a4565b81526020016137f06138f7565b81526020016137fd613926565b81525090565b61382591905b80821115613821576000816000905550600101613809565b5090565b90565b6040518060600160405280600073ffffffffffffffffffffffffffffffffffffffff16815260200160608152602001606081525090565b60405180610100016040528060608152602001606081526020016060815260200160608152602001606081526020016060815260200160608152602001606081525090565b604051806101400160405280606081526020016060815260200160608152602001606081526020016060815260200160608152602001606081526020016060815260200160608152602001606081525090565b6040518060a0016040528060608152602001606081526020016060815260200160608152602001606081525090565b60405180606001604052806060815260200160608152602001606081525090565b600081359050613956816145ee565b92915050565b600082601f83011261396d57600080fd5b813561398061397b826144c1565b614494565b9150808252602083016020830185838301111561399c57600080fd5b6139a783828461459b565b50505092915050565b6000602082840312156139c257600080fd5b600082013567ffffffffffffffff8111156139dc57600080fd5b6139e88482850161395c565b91505092915050565b600080600060608486031215613a0657600080fd5b600084013567ffffffffffffffff811115613a2057600080fd5b613a2c8682870161395c565b935050602084013567ffffffffffffffff811115613a4957600080fd5b613a558682870161395c565b9250506040613a6686828701613947565b9150509250925092565b60008060008060808587031215613a8657600080fd5b600085013567ffffffffffffffff811115613aa057600080fd5b613aac8782880161395c565b945050602085013567ffffffffffffffff811115613ac957600080fd5b613ad58782880161395c565b935050604085013567ffffffffffffffff811115613af257600080fd5b613afe8782880161395c565b925050606085013567ffffffffffffffff811115613b1b57600080fd5b613b278782880161395c565b91505092959194509250565b60008060008060008060c08789031215613b4c57600080fd5b600087013567ffffffffffffffff811115613b6657600080fd5b613b7289828a0161395c565b965050602087013567ffffffffffffffff811115613b8f57600080fd5b613b9b89828a0161395c565b955050604087013567ffffffffffffffff811115613bb857600080fd5b613bc489828a0161395c565b945050606087013567ffffffffffffffff811115613be157600080fd5b613bed89828a0161395c565b935050608087013567ffffffffffffffff811115613c0a57600080fd5b613c1689828a0161395c565b92505060a087013567ffffffffffffffff811115613c3357600080fd5b613c3f89828a0161395c565b9150509295509295509295565b60008060008060008060008060006101208a8c031215613c6b57600080fd5b60008a013567ffffffffffffffff811115613c8557600080fd5b613c918c828d0161395c565b99505060208a013567ffffffffffffffff811115613cae57600080fd5b613cba8c828d0161395c565b98505060408a013567ffffffffffffffff811115613cd757600080fd5b613ce38c828d0161395c565b97505060608a013567ffffffffffffffff811115613d0057600080fd5b613d0c8c828d0161395c565b96505060808a013567ffffffffffffffff811115613d2957600080fd5b613d358c828d0161395c565b95505060a08a013567ffffffffffffffff811115613d5257600080fd5b613d5e8c828d0161395c565b94505060c08a013567ffffffffffffffff811115613d7b57600080fd5b613d878c828d0161395c565b93505060e08a013567ffffffffffffffff811115613da457600080fd5b613db08c828d0161395c565b9250506101008a013567ffffffffffffffff811115613dce57600080fd5b613dda8c828d0161395c565b9150509295985092959850929598565b60008060008060008060008060008060006101608c8e031215613e0c57600080fd5b60008c013567ffffffffffffffff811115613e2657600080fd5b613e328e828f0161395c565b9b505060208c013567ffffffffffffffff811115613e4f57600080fd5b613e5b8e828f0161395c565b9a505060408c013567ffffffffffffffff811115613e7857600080fd5b613e848e828f0161395c565b99505060608c013567ffffffffffffffff811115613ea157600080fd5b613ead8e828f0161395c565b98505060808c013567ffffffffffffffff811115613eca57600080fd5b613ed68e828f0161395c565b97505060a08c013567ffffffffffffffff811115613ef357600080fd5b613eff8e828f0161395c565b96505060c08c013567ffffffffffffffff811115613f1c57600080fd5b613f288e828f0161395c565b95505060e08c013567ffffffffffffffff811115613f4557600080fd5b613f518e828f0161395c565b9450506101008c013567ffffffffffffffff811115613f6f57600080fd5b613f7b8e828f0161395c565b9350506101208c013567ffffffffffffffff811115613f9957600080fd5b613fa58e828f0161395c565b9250506101408c013567ffffffffffffffff811115613fc357600080fd5b613fcf8e828f0161395c565b9150509295989b509295989b9093969950565b6000613fee83836140e4565b905092915050565b613fff81614569565b82525050565b6000614010826144fd565b61401a818561452b565b93508360208202850161402c856144ed565b8060005b8581101561406857848403895281516140498582613fe2565b94506140548361451e565b925060208a01995050600181019050614030565b50829750879550505050505092915050565b600061408582614513565b61408f818561454d565b935061409f8185602086016145aa565b6140a8816145dd565b840191505092915050565b60006140be82614513565b6140c8818561455e565b93506140d88185602086016145aa565b80840191505092915050565b60006140ef82614508565b6140f9818561453c565b93506141098185602086016145aa565b614112816145dd565b840191505092915050565b600061412a60158361454d565b91507f54657374494420616c72656164792065786973747300000000000000000000006000830152602082019050919050565b600061416982846140b3565b915081905092915050565b600060a0820190506141896000830188613ff6565b818103602083015261419b818761407a565b905081810360408301526141af818661407a565b905081810360608301526141c3818561407a565b905081810360808301526141d7818461407a565b90509695505050505050565b600060208201905081810360008301526141fd8184614005565b905092915050565b6000608082019050818103600083015261421f818761407a565b90508181036020830152614233818661407a565b90508181036040830152614247818561407a565b9050818103606083015261425b818461407a565b905095945050505050565b600060a0820190508181036000830152614280818861407a565b90508181036020830152614294818761407a565b905081810360408301526142a8818661407a565b905081810360608301526142bc818561407a565b905081810360808301526142d0818461407a565b90509695505050505050565b60006101008201905081810360008301526142f7818b61407a565b9050818103602083015261430b818a61407a565b9050818103604083015261431f818961407a565b90508181036060830152614333818861407a565b90508181036080830152614347818761407a565b905081810360a083015261435b818661407a565b905081810360c083015261436f818561407a565b905081810360e0830152614383818461407a565b90509998505050505050505050565b60006101408201905081810360008301526143ad818d61407a565b905081810360208301526143c1818c61407a565b905081810360408301526143d5818b61407a565b905081810360608301526143e9818a61407a565b905081810360808301526143fd818961407a565b905081810360a0830152614411818861407a565b905081810360c0830152614425818761407a565b905081810360e0830152614439818661407a565b905081810361010083015261444e818561407a565b9050818103610120830152614463818461407a565b90509b9a5050505050505050505050565b6000602082019050818103600083015261448d8161411d565b9050919050565b6000604051905081810181811067ffffffffffffffff821117156144b757600080fd5b8060405250919050565b600067ffffffffffffffff8211156144d857600080fd5b601f19601f8301169050602081019050919050565b6000819050602082019050919050565b600081519050919050565b600081519050919050565b600081519050919050565b6000602082019050919050565b600082825260208201905092915050565b600082825260208201905092915050565b600082825260208201905092915050565b600081905092915050565b60006145748261457b565b9050919050565b600073ffffffffffffffffffffffffffffffffffffffff82169050919050565b82818337600083830152505050565b60005b838110156145c85780820151818401526020810190506145ad565b838111156145d7576000848401525b50505050565b6000601f19601f8301169050919050565b6145f781614569565b811461460257600080fd5b5056fea365627a7a7231582040b99f69dd88ad4b385a240129a9818894ed6d7cca592b0a47e164d17f5152416c6578706572696d656e74616cf564736f6c63430005100040",
  "source": "// SPDX-License-Identifier: MIT\r\npragma solidity ^0.5.16;\r\npragma experimental ABIEncoderV2;\r\n\r\ncontract MentalHealth {\r\n    struct PatientCredentials {\r\n        address cryptoWalletAddress;\r\n        string healthID;\r\n        string testID;\r\n    }\r\n\r\n    struct mhtChildhoodDetails {\r\n        string questionOne;\r\n        string questionTwo;\r\n        string questionThree;\r\n        string questionFour;\r\n        string questionFive;\r\n        string questionSix;\r\n        string questionSeven;\r\n        string score;\r\n    }\r\n\r\n    struct mhtPHQ9Details {\r\n        string questionOne;\r\n        string questionTwo;\r\n        string questionThree;\r\n        string questionFour;\r\n        string questionFive;\r\n        string questionSix;\r\n        string questionSeven;\r\n        string questionEight;\r\n        string questionNine;\r\n        string score;\r\n    }\r\n\r\n    struct SentimentDetails {\r\n        string textSentiment;\r\n        string audioHash;\r\n        string sentimentOne;\r\n        string sentimentTwo;\r\n        string score;\r\n    }\r\n\r\n    struct VideoAnalysis {\r\n        string totalBlinkCount;\r\n        string blinkPerMinute;\r\n        string cvScore;\r\n    }\r\n\r\n    struct PatientMHTest {\r\n        PatientCredentials credentials;\r\n        mhtChildhoodDetails mhtcd;\r\n        mhtPHQ9Details mhtphqDetails;\r\n        SentimentDetails sentimentDetails;\r\n        VideoAnalysis videoDetails;\r\n    }\r\n\r\n    mapping(string => string[]) private healthIDToTestIDs;\r\n    mapping(string => PatientMHTest) private testIDToPatientTest;\r\n\r\n    function initializePatientMHTest( string memory _healthID, string memory _testID, address _cryptoWalletAddress ) public {\r\n        require(bytes(testIDToPatientTest[_testID].credentials.testID).length == 0, \"TestID already exists\");\r\n\r\n        healthIDToTestIDs[_healthID].push(_testID);\r\n\r\n        testIDToPatientTest[_testID] = PatientMHTest({\r\n            credentials: PatientCredentials({\r\n                healthID: _healthID,\r\n                testID: _testID,\r\n                cryptoWalletAddress: _cryptoWalletAddress\r\n            }),\r\n            mhtcd: mhtChildhoodDetails(\"\", \"\", \"\", \"\", \"\", \"\", \"\", \"\"),\r\n            mhtphqDetails: mhtPHQ9Details(\"\", \"\", \"\", \"\", \"\", \"\", \"\", \"\", \"\", \"\"),\r\n            sentimentDetails: SentimentDetails(\"\", \"\", \"\", \"\", \"\"),\r\n            videoDetails: VideoAnalysis(\"\", \"\", \"\")\r\n        });\r\n    }\r\n\r\n    function initializeChildhoodDetails( string memory _testID, string memory _questionOne, string memory _questionTwo, string memory _questionThree, string memory _questionFour, string memory _questionFive,string memory _questionSix, string memory _questionSeven, string memory _score ) public {\r\n        mhtChildhoodDetails memory mhtcd = mhtChildhoodDetails({\r\n            questionOne: _questionOne,\r\n            questionTwo: _questionTwo,\r\n            questionThree: _questionThree,\r\n            questionFour: _questionFour,\r\n            questionFive: _questionFive,\r\n            questionSix: _questionSix,\r\n            questionSeven: _questionSeven,\r\n            score: _score\r\n        });\r\n\r\n        testIDToPatientTest[_testID].mhtcd = mhtcd;\r\n    }\r\n\r\n    function initializePHQ9Details( string memory _testID, string memory _questionOne, string memory _questionTwo, string memory _questionThree, string memory _questionFour, string memory _questionFive, string memory _questionSix, string memory _questionSeven, string memory _questionEight, string memory _questionNine, string memory _score ) public {\r\n        mhtPHQ9Details memory mhtphqDetails = mhtPHQ9Details({\r\n            questionOne: _questionOne,\r\n            questionTwo: _questionTwo,\r\n            questionThree: _questionThree,\r\n            questionFour: _questionFour,\r\n            questionFive: _questionFive,\r\n            questionSix: _questionSix,\r\n            questionSeven: _questionSeven,\r\n            questionEight: _questionEight,\r\n            questionNine: _questionNine,\r\n            score: _score\r\n        });\r\n\r\n        testIDToPatientTest[_testID].mhtphqDetails = mhtphqDetails;\r\n    }\r\n\r\n    function initializeSentimentDetails( string memory _testID, string memory _text, string memory _hash, string memory _sentimentOne, string memory _sentimentTwo, string memory _score ) public {\r\n        SentimentDetails memory sentimentDetails = SentimentDetails({\r\n            textSentiment: _text,\r\n            audioHash: _hash,\r\n            sentimentOne: _sentimentOne,\r\n            sentimentTwo: _sentimentTwo,\r\n            score: _score\r\n        });\r\n\r\n        testIDToPatientTest[_testID].sentimentDetails = sentimentDetails;\r\n    }\r\n\r\n    function initializeEmotionDetails( string memory _testID, string memory _totalBlink, string memory _blinkPerMinute, string memory _cvScore) public {\r\n        VideoAnalysis memory EmotionalDetails = VideoAnalysis({\r\n            totalBlinkCount: _totalBlink,\r\n            blinkPerMinute: _blinkPerMinute,\r\n            cvScore: _cvScore\r\n        });\r\n\r\n        testIDToPatientTest[_testID].videoDetails = EmotionalDetails;\r\n    }\r\n\r\n    function getAllTestIDs(string memory _healthID)  public view  returns (string[] memory _testIDs)  {\r\n        return healthIDToTestIDs[_healthID];\r\n    }\r\n\r\n    function getChildhoodDetails(string memory _testID)  public view  returns ( string memory _questionOne, string memory _questionTwo, string memory _questionThree, string memory _questionFour, string memory _questionFive, string memory _questionSix, string memory _questionSeven, string memory _score ) {\r\n        mhtChildhoodDetails memory details = testIDToPatientTest[_testID].mhtcd;\r\n        return (\r\n            details.questionOne,\r\n            details.questionTwo,\r\n            details.questionThree,\r\n            details.questionFour,\r\n            details.questionFive,\r\n            details.questionSix,\r\n            details.questionSeven,\r\n            details.score\r\n        );\r\n    }\r\n\r\n    function getPHQ9Details(string memory _testID)  public view  returns ( string memory _questionOne, string memory _questionTwo, string memory _questionThree, string memory _questionFour, string memory _questionFive, string memory _questionSix, string memory _questionSeven, string memory _questionEight, string memory _questionNine, string memory _score )  {\r\n        mhtPHQ9Details memory details = testIDToPatientTest[_testID].mhtphqDetails;\r\n        return (\r\n            details.questionOne,\r\n            details.questionTwo,\r\n            details.questionThree,\r\n            details.questionFour,\r\n            details.questionFive,\r\n            details.questionSix,\r\n            details.questionSeven,\r\n            details.questionEight,\r\n            details.questionNine,\r\n            details.score\r\n        );\r\n    }\r\n\r\n    function getSentimentDetails(string memory _testID)  public view  returns ( string memory _textSentiment, string memory _audioHash, string memory _sentimentOne, string memory _sentimentTwo, string memory _score ) {\r\n        SentimentDetails memory details = testIDToPatientTest[_testID].sentimentDetails;\r\n        return (\r\n            details.textSentiment,\r\n            details.audioHash,\r\n            details.sentimentOne,\r\n            details.sentimentTwo,\r\n            details.score\r\n        );\r\n    }\r\n\r\n    function getAllScores(string memory _testID)  public view  returns (string memory _historyScore, string memory _phq9Score, string memory _sentimentalScore, string memory _videoScore) {\r\n        return (\r\n            testIDToPatientTest[_testID].mhtcd.score,\r\n            testIDToPatientTest[_testID].mhtphqDetails.score,\r\n            testIDToPatientTest[_testID].sentimentDetails.score,\r\n            testIDToPatientTest[_testID].videoDetails.cvScore\r\n        );\r\n    }\r\n\r\n    function getCompleteTestDetails(string memory _testID)  public view  returns (address _cryptoWalletAddress,string memory _healthID,string memory _childhoodScore,string memory _phq9Score,string memory _sentimentalScore )  {\r\n        PatientMHTest memory testDetails = testIDToPatientTest[_testID];\r\n        return (\r\n            testDetails.credentials.cryptoWalletAddress,\r\n            testDetails.credentials.healthID,\r\n            testDetails.mhtcd.score,\r\n            testDetails.mhtphqDetails.score,\r\n            testDetails.sentimentDetails.score\r\n        );\r\n    }\r\n}",
  "sourcePath": "C:\\Users\\Aman\\Desktop\\PROJECTS\\WellWise\\src\\contracts\\MentalHealth.sol",
  "compiler": {
    "name": "solc",
    "version": "0.5.16+commit.9c3226ce.Emscripten.clang"
  },
  "schemaVersion": "3.4.16",
  "updatedAt": "2025-01-11T22:57:02.535Z",
  "networkType": "ethereum",
  "devdoc": {
    "methods": {}
  },
  "userdoc": {
    "methods": {}
  }
}